:020000040000fa
:080000000002040000000000f2
:020000040000fa
:10040000af8820000e7f22000e018800000000004f
:100410000c000700a0dd2000010020000f000700f5
:10042000000020000000e000020032000000020096
:10043000000000001a0d0200000000000040da0079
:100440000000fe00602820000000e00002003200f2
:10045000002020009001880000000600a102880012
:10046000800078000000eb001a003700e2804000b6
:1004700054a0b4009101ba00e280400054a0b4003e
:100480009102ba00e280400054a0b4000002eb00e8
:10049000472bde00f507b200a6018800602ce100c2
:1004a00008003a000049eb000201e80002003900b0
:1004b0003420ec0002f0a0008301e900f9ff3e00c7
:1004c000040037006128e100010032000082eb00e7
:1004d000040007001101ba000200e000e3ff3a0047
:1004e0000000060004d0a300e20f49001c00390000
:1004f000810278003549ba000201e80002003900a3
:100500003420ec0002f0a0008301e9000f0032006b
:100510002549ba000201e800020039003420ec004d
:1005200002f0a0008301e900080032000400e000ae
:100530000600320015c9ba000201e80002003900c5
:100540003420ec0002f0a0008301e9008180e80083
:1005500054a0b4000300e000e2ff3a0000000600ef
:100560009102ba00055978008301e900f7ff3200d3
:10057000c82ade00055978008301e900f3ff320044
:100580000400e000f1ff320011d9ba00eeff37009d
:080590000040da000000fe004b
:020000040000fa
:020000040002f8
:04aff400ffff00005b
:020000040000fa
:020000040002f8
:04aff8002efa00002d
:020000040000fa
:020000040002f8
:04affc00d93f000039
:020000040000fa
:10000800c8020000c8020000c8020000c8020000c0
:10001800c8020000c8020000c8020000c8020000b0
:10002800c8020000c8020000c8020000c8020000a0
:10003800c8020000c8020000c8020000c802000090
:10004800c8020000c8020000c8020000920d0000ab
:10005800c8020000c8020000c8020000c802000070
:10006800c8020000c8020000c8020000c802000060
:10007800c8020000c8020000c8020000c802000050
:10008800c8020000c8020000c8020000c802000040
:10009800c8020000c80200007e0d0000c80200006f
:1000a800c8020000c8020000c8020000c802000020
:1000b800c8020000c8020000c8020000c802000010
:1000c800c8020000c8020000c8020000c802000000
:1000d800c8020000c8020000c8020000c8020000f0
:1000e800c8020000c8020000c8020000c8020000e0
:1000f800c8020000c8020000c8020000c8020000d0
:10010800c8020000c8020000c8020000c8020000bf
:10011800c8020000c8020000c8020000c8020000af
:10012800c8020000c8020000c8020000c80200009f
:10013800c8020000c8020000c8020000c80200008f
:10014800c8020000c8020000c8020000c80200007f
:10015800c8020000c8020000c8020000c80200006f
:10016800c8020000c8020000c8020000c80200005f
:10017800c8020000c8020000c8020000c80200004f
:10018800c8020000c8020000c8020000c80200003f
:10019800c8020000c8020000c8020000c80200002f
:1001a800c8020000c8020000c8020000c80200001f
:1001b800c8020000c8020000c8020000c80200000f
:1001c800c8020000c8020000c8020000c8020000ff
:1001d800c8020000c8020000c8020000c8020000ef
:1001e800c8020000c8020000c8020000c8020000df
:0801f800c8020000c80200006b
:020000040000fa
:10020800c8020000c8020000c8020000c8020000be
:10021800c8020000c8020000c8020000c8020000ae
:10022800c8020000c8020000c8020000c80200009e
:10023800c8020000c8020000c8020000c80200008e
:10024800c8020000c8020000c8020000920d0000a9
:10025800c8020000c8020000c8020000c80200006e
:10026800c8020000c8020000c8020000c80200005e
:10027800c8020000c8020000c8020000c80200004e
:10028800c8020000c8020000c8020000c80200003e
:10029800c8020000c80200007e0d0000c80200006d
:1002a800c8020000c8020000c8020000c80200001e
:1002b800c8020000c8020000c8020000c80200000e
:1002c800c8020000c8020000c8020000c8020000fe
:1002d800c8020000c8020000c8020000c8020000ee
:1002e800c8020000c8020000c8020000c8020000de
:1002f800c8020000c8020000c8020000c8020000ce
:10030800c8020000c8020000c8020000c8020000bd
:10031800c8020000c8020000c8020000c8020000ad
:10032800c8020000c8020000c8020000c80200009d
:10033800c8020000c8020000c8020000c80200008d
:10034800c8020000c8020000c8020000c80200007d
:10035800c8020000c8020000c8020000c80200006d
:10036800c8020000c8020000c8020000c80200005d
:10037800c8020000c8020000c8020000c80200004d
:10038800c8020000c8020000c8020000c80200003d
:10039800c8020000c8020000c8020000c80200002d
:1003a800c8020000c8020000c8020000c80200001d
:1003b800c8020000c8020000c8020000c80200000d
:1003c800c8020000c8020000c8020000c8020000fd
:1003d800c8020000c8020000c8020000c8020000ed
:1003e800c8020000c8020000c8020000c8020000dd
:0803f800c8020000c802000069
:020000040000fa
:10059800736500006e64000020520000657300005f
:1005a8006574000020500000686f0000746f000040
:1005b8000a000000736500006e640000205200000d
:1005c800657300006574000020500000686f00002b
:1005d800746f000020450000727200006f72000006
:1005e8000a000000736500006e64000020520000dd
:1005f800657300006574000020500000686f0000fb
:10060800746f0000204500006e6400000a000000be
:10061800736500006e6400002047000065740000e8
:10062800204c0000656e000067740000680a000036
:1006380000730000656e000064200000476500003c
:10064800742000004c6500006e67000074680000ac
:1006580020650000727200006f7200000a0000003e
:100668000a0000000a730000656e000064200000a4
:1006780047650000742000004c6500006e670000ac
:1006880074680000206500006e6400000a00000025
:10069800706800006f7400006f5f00006c650000f8
:1006a8006e3d0000000a0000536500006e64000003
:1006b8002073000074610000727400002070000054
:1006c800686f0000746f00000a00000053650000a6
:1006d8006e640000207300007461000072740000f2
:1006e80020700000686f0000746f00002045000053
:1006f800727200006f7200000a000000536500006b
:100708006e640000207300007461000072740000c1
:1007180020700000686f0000746f00002045000022
:100728006e6400000a00000042650000676900006e
:100738006e6900006e67000020730000746100009d
:10074800727400002063000061700000747500007e
:1007580072650000200d00000a0d00000050000026
:10076800726900006e7400006620000035200000e9
:10077800666900007273000074200000627900004e
:1007880074650000730d00000a0d0000006500008c
:10079800727200006f720000203200000a00000030
:1007a80050720000696e000074660000203100007d
:1007b8003030000020660000697200007374000089
:1007c8002062000079740000657300000d0a0000c3
:1007d8000d000000616100006161000061610000be
:1007e80061610000610d0000006700006574000091
:1007f80020700000686f0000746f00002065000022
:100808006e64000064640000646400000a00000074
:10081800536500006e64000020730000746f0000d0
:1008280070200000706800006f7400006f200000e6
:100838000a000000536500006e6400002073000089
:10084800746f000070200000706800006f74000072
:100858006f20000065720000726f0000720a0000cd
:1008680000530000656e00006420000073740000ef
:100878006f70000020700000686f0000746f000047
:10088800206500006e6400000a0000005365000047
:100898006e64000020700000686f0000746f000034
:1008a80020530000697a0000650d00000a0000006e
:1008b800536500006e64000020700000686f00003f
:1008c800746f000020730000697a00006520000042
:1008d80045720000726f0000720a000000530000a9
:1008e800656e000064200000506800006f7400000e
:1008f8006f200000536900007a6500002045000061
:100908006e6400000d0a000000730000656e0000b0
:1009180064200000436c0000656100006e20000048
:100928006361000063680000650a0000007300004e
:10093800656e000064200000436c000065610000e3
:100948006e200000636100006368000065200000fd
:1009580065720000726f0000720a000000730000e8
:10096800656e000064200000436c000065610000b3
:100978006e200000636100006368000065200000cd
:10098800206500006e6400000a0000005068000046
:100998006f7400006f200000496e00006974000049
:1009a800200a000000500000686f0000746f00000b
:1009b800204900006e69000074200000456e0000a8
:1009c800640a000000500000686f0000746f0000a7
:1009d800204900006e690000742000004572000084
:1009e800726f0000720a000000530000656e00007c
:1009f80064200000436f00006d7000007265000005
:100a08007373000020500000686f0000746f0000ce
:100a18000a000000536500006e64000020430000d7
:100a28006f6d000070720000657300007320000095
:100a3800706800006f7400006f20000045720000ad
:100a4800726f0000720a000000530000656e00001b
:100a580064200000436f00006d70000072650000a4
:100a68007373000020500000686f0000746f00006e
:100a7800204500006e6400000a00000030310000cc
:100a880032330000343500003637000038390000b2
:0c0a9800414200004344000045460000bd
:020000040000fa
:100aa4000200fa00004f78001e4078003903070066
:100ab4000080fa00000006000600fa001007980003
:100ac400210798000000eb00000f78000000eb0005
:100ad400000f7800060037009e0078001e0090008a
:100ae4000080400010407800edff07001e0fe80072
:100af4002e0090009e0f1000f7ff39000080fa00ce
:100b0400000006000a00fa00881f780020079800f9
:100b1400310798006000b800008fbe006000b80084
:100b2400008fbe000a0037001e00780080007800a5
:100b34002e0090000084400045030700004c78001c
:100b440010002000010020001e0f40005e974800a6
:100b54003e00900001002000be0f5000ae8f5800f0
:100b6400f1ff3e002e0090009040780060c7b30073
:100b740080cf500003003a00110020004107980084
:100b8400020037000000eb00400798004e00900080
:100b94004f0478000080fa00000006000e00fa00fe
:100ba4000040eb00004f7800c02c280049030700e8
:100bb4005100200000802000bfff07000e00e80065
:100bc40041002000cfff07000004e00010003a00bd
:100bd4000040eb00004f7800050037001e80fb004a
:100be4008e00e80060c07800300307001e4fe80064
:100bf40030c0b3009e4f1000f8ff3600e02d2800ef
:100c0400340307000000eb0060079800170037006a
:100c14000040eb00004f78000d0037009e80fb0081
:100c24000e00e800614178009e80fb0050802000a7
:100c34000080400010407800804f510003003200d3
:100c44000000eb0060079800080037001e4fe80022
:100c540030c0b3009e4f1000f0ff3600602f280014
:100c64001c03070010002000600798006e0090002d
:100c74000080fa00000006000a00fa000040eb00c1
:100c8400004f7800c03028001203070051002000f4
:100c94003081200088ff07000e00e800910020004a
:100ca40098ff07000004e00003003a000000eb0096
:100cb400400798002f0037000040eb00004f7800f9
:100cc400130037009e80fb000e00e80061407800ae
:100cd400f60207009e80fb000e00e80061417800e8
:100ce4009e80fb008081200000804000104078003e
:100cf400804f510005003200d0312800f502070072
:100d04000000eb00400798001a0037001e4fe8006f
:100d140060c0b3009e4f1000eaff36000e00e800ea
:100d2400804890000e00e800704090001400070016
:100d340040332800e70207000040eb00004f780032
:100d4400050037001e80fb008e00e80060c07800bc
:100d5400f70207001e4fe80080c0b3009e4f10004a
:100d6400f8ff360060332800da0207001000200084
:100d7400400798004e0090000080fa000000060032
:100d84000600fa0040479800514798004e409000f2
:100d94000080fb00c800dd005e4090000080fb0086
:100da40000804000cf80de00008fbe004e409000e7
:100db4002be8b7005e4090002ce8b7001e00be0090
:100dc4002044880031448800c0342800c102070050
:100dd4002044800031448000b40207000080fa00ff
:100de400000006000800fa000040eb00004f780005
:100df40070352800b7020700a10020009080200071
:100e04002dff07000e00e800510020003dff070001
:100e14000004e00003003a000000eb0030079800f3
:100e24001d0037000040eb00004f7800130037002e
:100e34009e80fb000e00e80061407800bc020700c1
:100e44009e80fb000e00e800614178009e80fb005c
:100e5400e08020000080400010407800804f510066
:100e640005003200a03628009a0207000000eb00bb
:100e740030079800080037001e4fe80040c0b30058
:100e84009e4f1000eaff3600203828009102070028
:100e940010002000300798003e0090000080fa0007
:100ea40000000600ae3afa008039280089020700e3
:100eb4006000b80030079800410798000040eb003c
:100ec400504798002044800031448000a200200054
:100ed40003002000021f4000039748000101200086
:100ee400f0812000f4fe07006c00470050079800d2
:100ef400510020005e00900002ff07004047980068
:100f04004e4090000004e00005003a006000b80084
:100f1400a2aa23000e0141000089be00660037002a
:100f2400303b28006b0207006000b80030079800cf
:100f3400410798001f0037003e009000ce0090004b
:100f44006c0147000000410010407800780207005f
:100f54003e009000ce0090006c014700000041006c
:100f6400904178003e009000ce009000f282200074
:100f7400020040001040780080cf5100070032008a
:100f8400b03c2800530207006000b800a2aa230066
:100f94000e0141000089be00470037003e0090006a
:100fa400ce00900061004000e080480030079800c7
:100fb400410798003e019000ce01900040002000bf
:100fc40001002000800f5100818f5900daff3600a4
:100fd400403d28003f0207006000b8003007980039
:100fe400410798000e0037003e009000ce009000ac
:100ff4007101470000004100104078004c020700d6
:10100400e03e28006f0207003e009000ce009000f2
:1010140061004000e08048003007980041079800d4
:101024003e019000ce019000b0d4210001002000c8
:10103400800f5100818f5900ebff36006000b8002b
:1010440030079800410798000d0037003e019000da
:10105400ce019000d0d521000000470002004000de
:1010640010407800320207003e009000ce0090004d
:1010740061004000e0804800300798004107980074
:101084003e019000ce01900070b5210001002000c7
:10109400800f5100818f5900ecff3600903f2800eb
:1010a4000c0207001000200001002000a2aa230067
:1010b4000e0141000089be00a3aa23008e814100d5
:1010c4001300be000080fa00000006000a00fa00c7
:1010d4002007980043ff07000004e0000d003200e1
:1010e400e5fe07000004e0000a0032006000b800da
:1010f400008fbe001e00be00e00f5000e08f5800bd
:1011040004003a001e00be00300798004107980012
:10111400030037006000b8003007980041079800ca
:101124003e009000ce0090000080fa00000006000f
:101134000200fa00000f78002aff0700cefe070025
:101144000080fa00000006000600fa00100798006c
:10115400210798000000eb00000f78000000eb006e
:10116400000f7800070037001e0078008000780028
:101174001e009000008040001040780085010700a8
:101184001e0fe8009e0078002e009000808f500013
:10119400f5ff39000080fa00000006000800fa009c
:1011a400881f780010079800210798000000eb00c2
:1011b400000f78000000eb00000f780006003700f5
:1011c4009e0078001e00900000844000a0010700eb
:1011d400004c78001e0fe8002e0090009e0f1000b7
:1011e400f7ff39001e0090009040780060c7b300fc
:1011f40080cf500003003a00100020003007980010
:10120400020037000000eb00300798003e00900019
:101214004f0478000080fa00000006000800fa007d
:10122400c0402800ab01070051002000908320003b
:1012340021fe07000e00e8005100200031fe0700e7
:101244000004e00003003a000000eb0030079800bf
:10125400190037000040eb00004f78000f00370002
:101264009e80fb000e00e800614178009e80fb0038
:10127400e08320000080400010407800804f51003f
:1012840005003200e0412800920107000000eb0055
:1012940030079800080037001e4fe80040c0b30034
:1012a4009e4f1000eeff36005043280089010700ce
:1012b40010002000300798003e0090000080fa00e3
:1012c400000006000800fa00a0442800810107007d
:1012d400a100200030842000f7fd07000e00e80084
:1012e4005100200007fe07000004e00003003a005c
:1012f4000000eb0030079800190037000040eb00b5
:10130400004f78000f0037009e80fb000e00e800bd
:10131400614178009e80fb00d08420000080400062
:1013240010407800804f510005003200c04528006d
:10133400680107000000eb00300798000800370040
:101344001e4fe80040c0b3009e4f1000eeff360071
:10135400304728005f010700100020003007980084
:101364003e0090000080fa00000006000800fa0029
:101374009048280057010700510020008087200072
:10138400cdfd07000e00e80051002000ddfd070040
:101394000004e00003003a000000eb00300798006e
:1013a400190037000040eb00004f78000f003700b1
:1013b4009e80fb000e00e800614178009e80fb00e7
:1013c400d08720000080400010407800804f5100fa
:1013d40005003200b04928003e0107000000eb0080
:1013e40030079800080037001e4fe80040c0b300e3
:1013f4009e4f1000eeff3600304b280035010700e9
:1014040010002000300798003e0090000080fa0091
:10141400000006000800fa000e00e8005100200059
:101424005eff07000000e00003003a000000eb004c
:1014340030079800150037000040eb00004f78009b
:101444000d0037009e80fb000e00e800614178002b
:101454009e80fb0040832000008040001040780004
:10146400804f5100030032000000eb003007980069
:10147400060037001e4fe80040c0b3009e4f100026
:10148400f0ff360010002000300798003e00900066
:101494000080fa00000006000800fa007100200035
:1014a4002085200084fd07000e00e8005100200084
:1014b4003aff07000000e00003003a000000eb00e0
:1014c40030079800150037000040eb00004f78000b
:1014d4000d0037009e80fb000e00e800614178009b
:1014e4009e80fb0090852000008040001040780022
:1014f400804f5100030032000000eb0030079800d9
:10150400060037001e4fe80040c0b3009e4f100095
:10151400f0ff360010002000300798003e009000d5
:101524000080fa00000006000200fa00a04c280027
:10153400e800070099fd07000004e00011003200f4
:1015440060ff07000004e0000e00320033ff0700d4
:101554000004e0000b003200110007000004e0006a
:101564000800320081ff07000004e000050032009b
:10157400704d2800d700070010002000000f7800ed
:1015840004003700704e2800d20007000000eb0072
:10159400000f78001e0078000080fa0000000600aa
:1015a4000800fa00904f2800ca00070091002000ac
:1015b400e085200040fd07000e00e80051002000f7
:1015c400f6fe07000000e00003003a000000eb0014
:1015d40030079800190037000040eb00004f7800f6
:1015e4000f0037009e80fb000e00e8006141780088
:1015f4009e80fb0070862000008040001040780030
:10160400804f510005003200e0502800b10007006f
:101614000000eb0030079800080037001e4fe80078
:1016240040c0b3009e4f1000eeff360090522800d9
:10163400a800070010002000300798003e0090002a
:101644000080fa00000006000800fa007100200083
:10165400c086200018fd07000e00e800510020009d
:10166400cefe07000000e00003003a000000eb009b
:1016740030079800150037000040eb00004f780059
:101684000d0037009e80fb000e00e80061417800e9
:101694009e80fb00308720000080400010407800ce
:1016a400804f5100030032000000eb003007980027
:1016b400060037001e4fe80040c0b3009e4f1000e4
:1016c400f0ff360010002000300798003e00900024
:1016d4000080fa00000006000400fa002047980089
:1016e400314798000080fa00000006000000fa006c
:1016f4000080fa00000006000000fa00000120004b
:10170400c011880080002800801188000040220059
:101714009011880097c0a80087c0a9000080fa0033
:10172400000006000000fa000000eb00a011880091
:101734000080fa00000006000600fa001007980076
:10174400020037001e407800120007001e009000bf
:1017540010407800004f78001e4078004047980001
:101764004e4090000004e0000200320010c0b300bc
:10177400404798004e4090009e0090008100e80091
:10178400110798000004e000eeff3a000080fa0020
:10179400000006000200fa00004f780033c2bf00c8
:1017a400614060000004e000fcff32001e80fb008a
:1017b400a01188000080fa00000006000400fa006e
:1017c400204798002e409000004f78002e40900053
:1017d4000080fb004400de006f406000204798005a
:1017e4002e4090008080fb00205428006140780047
:1017f400e8ff07009e4078006fc060002047980013
:101804002e4090008080fb00205428006140780026
:10181400e0ff07000080fa00000006000400fa0060
:10182400100798001e0090004800de001047980042
:101834001e009000004f78001e409000dfff07005c
:101844001e407800ddff07000080fa00000006005b
:101854000200fa0032c2bf00614060000004e000f0
:10186400fcff3200b0118000004f78001e40780069
:101874000080fb000080fa00000006000000fa006f
:1018840000012000401188009560a8008560a9002f
:1018940080002800001188002062a8000040200079
:1018a400101188000080fa00000006000200fa000f
:1018b400004f780023c2bf00614060000004e000d4
:1018c400fcff32001e80fb00201188000080fa001b
:1018d400000006000600fa00100798000200370016
:1018e4001e407800f1ff07001e00900010407800b1
:1018f400004f78001e407800404798004e4090000a
:101904000004e0000200320010c0b3004047980019
:101914004e4090009e0090008100e800110798005e
:101924000004e000eeff3a000080fa000000060028
:101934000400fa00204798002e409000004f7800e1
:101944002e4090000080fb004400de006f406000e9
:10195400204798002e4090008080fb0020542800ef
:1019640061407800d1ff07009e4078006fc060009e
:10197400204798002e4090008080fb0020542800cf
:1019840061407800c9ff07000080fa0000000600eb
:101994000400fa00100798001e0090004800de00c2
:1019a400104798001e009000004f78001e409000e1
:1019b400dfff07001e407800ddff07000080fa000b
:1019c400000006000800fa0020079800310798007c
:1019d4002e009000be0090004008de0001002000b0
:1019e400100798002e009000000f78001e00900051
:1019f400e7ff07001e007800e5ff07000080fa00fb
:101a0400000006000200fa0022c2bf00614060002c
:101a14000004e000fcff320030118000004f780029
:101a24001e4078000080fb000080fa0000000600e1
:101a34000200fa0000402200410f2000a900070024
:101a44000000eb00203a880021742000620420008a
:101a540073052000824878008348780042c7a900b3
:101a6400416a20009140780000ccb30000c06000bf
:101a74006041b300a4e6b700916d20009140780066
:101a840000ccb30000c060003040b300d9e6b7001a
:101a9400616a20009140780000ccb30000c060006f
:101aa4008041b300a6e6b700716d20009140780034
:101ab40000ccb30000c060005040b300d7e6b700cc
:101ac40021742000620420007305200082487800fd
:101ad4008348780042c7a8000060fe0040a7a80021
:101ae400e862a900ec62a80064ff070002ff070097
:101af4000060fe00feff37003200f800881f780007
:101b040008202000980188004f0478000000fa00a3
:101b140087c0a9000080fa003200f90000400600e6
:101b24003600f800809fbe00829fbe00849fbe00e6
:101b3400869fbe003200f80000202000900188003b
:101b44000000fa008560a9003011800088e8b70021
:101b5400818820009140780010c3b30080cf5000ea
:101b640005003a00d7fd07008dfe0700fffd0700c2
:101b74009cfc070040fc070081882000914078000d
:101b840020c3b30080cf500001003a00c5fc070019
:101b94000080fa003200f9004f03be004f02be007d
:101ba4004f01be004f00be003600f90000400600a1
:020000040000fa
:101bb4008808000002000000800000000008000007
:101bc400820000008200000056002600000076001b
:101bd40000260000560036000100760000360000a2
:101be40000560000340100007600340000040000b8
:101bf40000560000320c00000a0000000000000043
:101c040000000000ffff76000032000000760000b4
:101c14005400000056003600010376000036000030
:101c2400005600003105040001001900110076007f
:101c340000310000005600003e0300000100760061
:101c4400003e0000005600003105010001120400ae
:101c540080760000310000005600240003010d00ce
:101c6400a67600002400000056003600010376002a
:101c7400003600000000000082080000060000009a
:081c84008000000000000000d8
:020000040000fa
:101c8c000400fa002047980040c0b30010479800a9
:101c9c00a0cfb300004f78001e4fe9001e04e000f7
:101cac00fdff3a001e4090000040e90010479800ec
:101cbc001e4090000004e000f5ff3a002e4090001a
:101ccc000040e900204798002e4090000004e000fe
:0c1cdc00edff3a000080fa000000060056
:020000040000fa
:101ce800f03fb1000180b10006003500ee030900a5
:101cf80000000000403fb1000180b100fbff3d0043
:101d08001000b000203fb00002003500008009003c
:081d18000000000000000600bd
:00000001FF
